:100000000C9440000C94CD000C94F8000C94230147
:100010000C9468000C9468000C9468000C946800C0
:100020000C9468000C946A000C9468000C946800AE
:100030000C9468000C9468000C9468000C946800A0
:100040000C94A7000C9468000C9468000C94680051
:100050000C9468000C9468000C9468000C94680080
:100060000C9468000C9468000C9468000C94680070
:100070000C9468000C9468000C946800290F390FE8
:1000800011241FBECFEFD8E0DEBFCDBF12E0A0E04D
:10009000B1E0E2EDF6E202C005900D92A039B107A1
:1000A000D9F722E0A0E9B2E001C01D92AD3CB20751
:1000B000E1F710E0CFE3D0E004C02197FE010E94F9
:1000C000550FCE33D107C9F70E94B20E0C945413CA
:1000D0000C9400001F920F920FB60F9211242F93D1
:1000E0003F934F935F936F937F938F939F93AF93C0
:1000F000BF93EF93FF938091C8028F5F8093C802F4
:100100008091C802877059F48091C702811118C08C
:1001100081E08093C7028BE992E00E944D07FF9136
:10012000EF91BF91AF919F918F917F916F915F916F
:100130004F913F912F910F900FBE0F901F901895E8
:100140001092C7028BE992E00E945B07E8CF1F92F2
:100150000F920FB60F9211242F933F934F935F93FB
:100160006F937F938F939F93AF93BF93EF93FF937F
:100170008BE992E00E94C908FF91EF91BF91AF9186
:100180009F918F917F916F915F914F913F912F91AF
:100190000F900FBE0F901F9018951F920F920FB6E1
:1001A0000F9211242F933F934F935F936F937F93FD
:1001B0008F939F93AF93BF93EF93FF938AE992E05E
:1001C0000E945C03882319F081E08093C602FF91AE
:1001D000EF91BF91AF919F918F917F916F915F91BF
:1001E0004F913F912F910F900FBE0F901F90189538
:1001F0001F920F920FB60F9211242F933F934F939C
:100200005F936F937F938F939F93AF93BF93EF937E
:10021000FF938AE992E00E946703882319F081E046
:100220008093C502FF91EF91BF91AF919F918F9104
:100230007F916F915F914F913F912F910F900FBEE2
:100240000F901F9018951F920F920FB60F921124C6
:100250002F933F934F935F936F937F938F939F93CE
:10026000AF93BF93EF93FF938AE992E00E947403E8
:10027000882319F081E080930201FF91EF91BF91F3
:10028000AF919F918F917F916F915F914F913F912E
:100290002F910F900FBE0F901F901895CF93C82FDE
:1002A00080E992E00E94430560E080E992E00E94CC
:1002B0001405C150C83008F044C0EC2FF0E0EF59ED
:1002C000FC4E21E040E00C94550F61E272E080E9C1
:1002D00092E00E94E30520E040E163E372E00AC09F
:1002E00061E272E080E992E00E94E30520E040E1F3
:1002F00067E272E080E992E0CF910C94E3056BE253
:1003000072E0F0CF6BE272E080E992E00E94E305D8
:1003100020E040E161E372E0EDCF67E372E080E965
:1003200092E00E94E30520E040E16DE372E0E2CF5D
:1003300067E372E0CCCF62E472E0E6CF62E472E0A1
:10034000EECFCF91089580910101853018F081E0C2
:1003500080930101809101018130B1F421E040E0FE
:1003600068E472E080E992E00E94E30520E040E169
:100370006EE472E080E992E00E94E3058EE492E090
:100380009093C3028093C202809101018230B1F444
:1003900021E040E068E472E080E992E00E94E30539
:1003A00020E040E160E572E080E992E00E94E30530
:1003B00080E592E09093C3028093C2028091010194
:1003C0008330B1F421E040E068E472E080E992E03B
:1003D0000E94E30520E040E162E572E080E992E0FE
:1003E0000E94E30582E592E09093C3028093C202EB
:1003F000809101018430B1F421E040E068E472E0D2
:1004000080E992E00E94E30520E040E164E572E0CB
:1004100080E992E00E94E30584E592E09093C302B4
:100420008093C202809101018F5F80930101089542
:100430008091C4028F5F8093C4028091C402833094
:1004400018F081E08093C4028091C4028130A1F54C
:1004500021E040E066E572E080E992E00E94E30579
:100460006091C2027091C30220E041E080E992E015
:100470000E94E30520E042E068E572E080E992E056
:100480000E94E3056091C0027091C10220E044E047
:1004900080E992E00E94E30520E045E06AE572E031
:1004A00080E992E00E94E30520E040E160E672E02E
:1004B00080E992E00E94E3058091C4028230A1F5B8
:1004C00021E040E066E572E080E992E00E94E30509
:1004D0006091C2027091C30220E041E080E992E0A5
:1004E0000E94E30520E042E068E572E080E992E0E6
:1004F0000E94E3056091C0027091C10220E044E0D7
:1005000080E992E00E94E30520E045E06AE572E0C0
:1005100080E992E00E94E30520E040E164E672E0B9
:1005200080E992E00C94E305089580910001883001
:1005300018F081E080930001809100018130B1F4D6
:1005400021E040E068E672E080E992E00E94E30585
:1005500020E040E16EE472E080E992E00E94E30571
:100560008EE492E09093C1028093C00280910001DA
:100570008230B1F421E040E068E672E080E992E088
:100580000E94E30520E040E160E572E080E992E04E
:100590000E94E30580E592E09093C1028093C0023F
:1005A000809100018330B1F421E040E068E672E020
:1005B00080E992E00E94E30520E040E162E572E01C
:1005C00080E992E00E94E30582E592E09093C10207
:1005D0008093C002809100018430B1F421E040E0BA
:1005E00068E672E080E992E00E94E30520E040E1E5
:1005F00064E572E080E992E00E94E30584E592E020
:100600009093C1028093C002809100018530B1F4C3
:1006100021E040E068E672E080E992E00E94E305B4
:1006200020E040E160E772E080E992E00E94E305AB
:1006300080E792E09093C1028093C0028091000114
:100640008630B1F421E040E068E672E080E992E0B3
:100650000E94E30520E040E162E772E080E992E079
:100660000E94E30582E792E09093C1028093C0026A
:10067000809100018730B1F421E040E068E672E04B
:1006800080E992E00E94E30520E040E164E772E047
:1006900080E992E00E94E30584E792E09093C10232
:1006A0008093C002809100018F5F809300010895C4
:1006B0002AE0FC01208308958FE493EC0197F1F781
:1006C00000C0000089B182FB882780F908958FE877
:1006D00092EE0197F1F700C0000089B183FB8827F3
:1006E00080F991E0892708952FE38EEC90E0215066
:1006F00080409040E1F700C0000083B182FB882772
:1007000080F991E089270895F8945298E89AE9E6EB
:10071000F0E080818360808378940895F894539802
:10072000E99AE9E6F0E08081886080837894089512
:10073000F8942298EA9AE9E6F0E08081806280836A
:100740007894089510927C0086E880937A0008954A
:1007500010927A00089580917C00807E80937C00C6
:1007600080917C006770682B60937C0080917A0098
:10077000806480937A0080917A0084FFFCCF80911E
:100780007A00806180937A002091780080917900CE
:1007900090E0982F8827820F911D08956F927F9285
:1007A0008F929F92AF92BF92CF92DF92EF92FF9281
:1007B0000F931F93CF93DF93CDB7DEB7CC51D140CA
:1007C0000FB6F894DEBF0FBECDBF8C016C015C018B
:1007D00088EEA81A8EEFB80A78014501C7010E9479
:1007E000A30A94E0E90EF11CEA14FB04B9F77401C2
:1007F000F801E459FE4F5F01C7010E94D406F3E0FF
:10080000EF0EF11CEA14FB04B9F728E131E0E9E04E
:10081000F1E0CE010196DC0101900D9221503040B3
:10082000D9F7712CAA24A3944C017E0187EEE81A13
:100830008EEFF80AB12C6A2C6B0C2B2D472D662DF0
:10084000C7010E94D506662D70E0FB01EE0FFF1F69
:10085000E60FF71FE00FF11F9F01285E3E4FF701E3
:1008600080819181A281F90180839183A283B394D5
:10087000F7E0BF12E0CFAF0E73948DE1A812DACF8C
:100880008401F801238141816081C7010E94A40A8B
:10089000F70180819181A281B381F60181939193C7
:1008A000A193B1936F010C5F1F4F0E151F0549F700
:1008B000C45EDE4F0FB6F894DEBF0FBECDBFDF9132
:1008C000CF911F910F91FF90EF90DF90CF90BF904D
:1008D000AF909F908F907F906F9008955F926F92EE
:1008E0007F928F929F92AF92BF92CF92DF92EF92C0
:1008F000FF920F931F93CF93DF935C01562E7901E4
:100900006A0166246394600E01E0712C16E94C01C3
:1009100084EE881A8EEF980A061116C0E70CF11CB7
:10092000F70131971083872DDF91CF911F910F91A0
:10093000FF90EF90DF90CF90BF90AF909F908F90FF
:100940007F906F905F900895E5012496CE010E94FC
:10095000AB0A851116C0CE010E94AE0AF601908145
:1009600089130FC0CE010E94B10A813051F4CE012B
:100970000E94B40A181728F0CE010E94B40A182F5A
:10098000702E2496C815D90509F70F5FFFEFCF1A0F
:10099000DF0AC2CFCF93DF93EB01FA019081DB0135
:1009A00080E0981771F03D91321316C09081A82F06
:1009B000B0E0292F2150330BA217B3072CF0915030
:1009C0009083DF91CF910895AC0FBD1F11969C913C
:1009D00011979C938F5FEACF8F5FE3CF90E080E029
:1009E0000895CF93DF93EC01CB01BA0118821982ED
:1009F0001A821B824C837D83188619860E94790C8B
:100A00004C815D8160E081E00E94320C80E190E0E9
:100A10000E945B0F9F838E83DF91CF910895FC012D
:100A2000868197810C94F10F1F93CF93DF93EC0194
:100A3000162F2C813D81462F6B8181E00E943A0C5C
:100A40001A83DF91CF911F9108951F93CF93DF9366
:100A5000EC01162F2C813D814A8181E00E943A0CE5
:100A60001B83DF91CF911F910895FC01862F603287
:100A700048F4618364817581803110F40C946C0CAE
:100A8000805DFCCF0895CF93DF93EC018C819D8135
:100A90000E94260C18826981CE01DF91CF910C94BF
:100AA00035056F927F928F929F92AF92BF92CF92B5
:100AB000DF92EF92FF920F931F93CF93DF93EC019E
:100AC0008B01F42EE22ECB010E94990B6C018A80DF
:100AD0007B8060E0CE010E94140560E0CE010E94A0
:100AE0002505EE2019F0CE010E9443052FE12F15B8
:100AF000D0F18F2D90E0A601552720E230E0281B91
:100B0000390B241735077CF19C2C6C817D81EFE03B
:100B1000EF1508F446C0840F951FEC2C40971CF08D
:100B200080E1E82EEF188F2D0E946C0C602E58018A
:100B30006C817D818A2D86198E1520F180E40E94BA
:100B40006C0C0E0D111DE91418F16981CE010E9483
:100B50003505682DCE010E941405672DCE010E9437
:100B60002505FC0CF882DF91CF911F910F91FF902A
:100B7000EF90DF90CF90BF90AF909F908F907F903D
:100B80006F900895F50181915F010E94730CD0CFA1
:100B90006C817D81F80181918F010E94730CE39437
:100BA000D2CF80E38F0D0E946C0CE02E58018A2D6D
:100BB0008E19891550F66C817D81F50181915F0157
:100BC0000E94730CF4CF6115710511F00C9451055E
:100BD00008950F931F93CF93DF9300D0CDB7DEB767
:100BE0008C011A82698320E0FC014081BE016F5FA5
:100BF0007F4F0E945105C8010F900F90DF91CF9158
:100C00001F910F910895EF92FF920F931F93CF932F
:100C1000DF938C01862FEA016830B0F42097A1F0B1
:100C2000F80164817581880F880F880F0E94640C19
:100C3000CE0108967C01F8016481758189910E943A
:100C4000730CCE15DF05B9F7DF91CF911F910F918E
:100C5000FF90EF900895CF93DF93EC01CB01892BA8
:100C600029F020E04881CE010E94E305CE01DF910A
:100C7000CF910895CF93DF93EC017F936F9386E735
:100C800092E09F938F938F818F938E818F930E9499
:100C900083106E817F81CE010E942B060F900F90F2
:100CA0000F900F900F900F90CE01DF91CF9108958C
:100CB000CF93DF93EC017F936F9389E792E09F934B
:100CC0008F938F818F938E818F930E9483106E817B
:100CD0007F81CE010E942B060F900F900F900F90F6
:100CE0000F900F90CE01DF91CF910895CF93DF93B6
:100CF000EC011F926F938CE792E09F938F938F810B
:100D00008F938E818F930E9483106E817F81CE019D
:100D10000E942B060F900F900F900F900F900F9046
:100D2000CE01DF91CF9108950F931F93CF93DF935F
:100D3000EC018B016115710561F0288581E02827A0
:100D40004985CE010E94E3058885882311F0188625
:100D50001986C801DF91CF911F910F910895FC0171
:100D6000603218F4618781E08087CF0108950F9386
:100D70001F93CF93DF93EC018881082F681708F445
:100D8000062F801B888310E0101308C08881811B08
:100D90008883DF91CF911F910F91089560E2CE017A
:100DA0000E94E9051F5FF0CF0895FC016083418335
:100DB00022830895FC0181810895FC0182810895B8
:100DC000FC0180810895EF92FF920F931F93CF93C0
:100DD000DF93EC011882198281E08A838E01075F1C
:100DE0001F4FC8010E94BC0DCE0140960E94170BF8
:100DF0008EE18B8B82E08C8B7E0181E1E80EF11C11
:100E0000CE0145960E94A20380E094E09F8B8E8BDA
:100E1000CE0148960E94650D1A8E1B8E1C8E1D8E6B
:100E20008AEF8AA384E68BA38FEF8CA384B18360BF
:100E300084B921E040E065E270E0CE0105960E94B1
:100E4000F70C62E0C7010E94C70AC801DF91CF9189
:100E50001F910F91FF90EF900C94DD0D0F931F9356
:100E6000CF93DF93EC018C01085E1F4FC8010E94F5
:100E7000660D6AA1C801DF91CF911F910F910C946B
:100E8000720DCF93DF93EC016896CE010E946C0D3A
:100E9000CE01DF91CF910C94810DFC0181E0828F16
:100EA000CF0105960C94FD0CFC0182E0828FCF01EE
:100EB00005960C94170DFC01128E05960C94DA0C15
:100EC000FC01828D0895CF93DF93EC016196CE01F2
:100ED0000E94CC0ACE01DF91CF910C940D0B0996A4
:100EE0000C94A60E1F93CF93DF93162FEC01299637
:100EF000CE010E94020E612FCE01DF91CF911F9192
:100F00000C940A0EFF920F931F93CF93DF93EC0183
:100F1000F62E2FEF8AED9AE1215080409040E1F7C4
:100F200000C000008E01075F1F4FC8010E94A60E7F
:100F30002FEF89E698E1215080409040E1F700C012
:100F400000006F2DC8010E94280E6096CE010E94FD
:100F5000800B8823D9F3CE010E94860B8823D9F316
:100F6000C8010E94A60EC8010E94020E2FEF8EE952
:100F700094E2215080409040E1F700C00000DF91F2
:100F8000CF911F910F91FF900895FF920F931F93A0
:100F9000CF93DF93EC01F62E2FEF8AED9AE12150EB
:100FA00080409040E1F700C000008E01075F1F4FB6
:100FB000C8010E94A60E2FEF89E698E121508040DB
:100FC0009040E1F700C000006F2DC8010E94520E52
:100FD0006096CE010E94800B8823D9F3CE010E9437
:100FE000860B8823D9F3C8010E94A60EC8010E946F
:100FF000020E2FEF8EE994E2215080409040E1F7FD
:1010000000C00000DF91CF911F910F91FF900895D4
:101010000F931F93CF93DF93EC018C01075F1F4F5A
:10102000C8010E947C0E2FEF8DE399E4215080408F
:101030009040E1F700C000006096CE010E94860B50
:101040008823D9F3C8010E94A60EC8010E94020E8F
:101050002FEF8EE994E2215080409040E1F700C0EC
:101060000000DF91CF911F910F910895FC01618FD6
:101070000895EF92FF921F93CF93DF93EC01142F0B
:10108000698F7C0180E1E80EF11CC7010E94800B92
:10109000882349F0CE010996DF91CF911F91FF90EF
:1010A000EF900C94A60EC7010E941B0B8823B9F089
:1010B000898D811109C0612FCE01DF91CF911F91E0
:1010C000FF90EF900C9482078230B1F5612FCE0132
:1010D000DF91CF911F91FF90EF900C947207C701A1
:1010E0000E94310B882361F0898D813069F7612F6F
:1010F000CE01DF91CF911F91FF90EF900C94C50727
:10110000C7010E94460B882321F0898D8330F1F6B8
:1011100015C0C7010E94570B8823C9F07E0189E0E2
:10112000E80EF11CC7010E94020E412F6BEF610F08
:10113000C7010E94F70D898D833011F5612FCE0113
:10114000DF91CF911F91FF90EF900C940808C70199
:101150000E94680B882359F07E0189E0E80EF11C9B
:10116000C7010E94020E47EE410F6AE0E0CFC701BF
:101170000E94790B882321F0898D8111B6CF9BCFF6
:10118000DF91CF911F91FF90EF900895FC01868D24
:101190000895FC0181A18F5F81A30895AF92BF9252
:1011A000CF92DF92EF92FF921F93CF93DF93EC01E8
:1011B000162F6C0128E1C20ED11CC6010E948D0DB4
:1011C0006CA1C6010E94990D7E0180E1E80EF11C20
:1011D000C7010E94800B882309F48DC0CE010E94B4
:1011E0005B079FEF25EA8EE0915020408040E1F7B9
:1011F00000C000005E0199E0A90EB11CC5010E946B
:10120000A60E89A188A3C6010E94930DC6010E9463
:10121000A20D2FEF89E698E1215080409040E1F740
:1012200000C00000612FCE010E940808C7010E9483
:10123000800B882309F4A9C02FEF87E893E12150A0
:1012400080409040E1F700C00000C5010E94A60E5A
:101250002FEF89E698E1215080409040E1F700C0EF
:101260000000612FCE010E9408088C8D833019F494
:10127000CE010E9454078C8D823019F4CE010E9459
:101280004D078C8D813079F4CE010E9454072FEFE9
:1012900089E698E1215080409040E1F700C00000CD
:1012A000CE010E945B078B8D833019F4CE010E9422
:1012B00054078B8D823019F4CE010E944D078B8D1F
:1012C000813009F071C0CE010E9454072FEF89E6EA
:1012D00098E1215080409040E1F700C00000CE012D
:1012E000DF91CF911F91FF90EF90DF90CF90BF9053
:1012F000AF900C945B07CE010E945B07412F62E028
:10130000CE010E943908C7010E94310B882391F158
:101310008D8D8130A9F5C7010E94310B882379F0AA
:101320008C8D8F5F8C8FCE010E9454079FEF22E53A
:1013300087E0915020408040E1F700C00000C701E5
:101340000E941B0B882379F08B8D8F5F8B8FCE01D2
:101350000E944D079FEF22E587E09150204080409A
:10136000E1F700C000008FE19EE40197F1F700C0B3
:1013700000002ECFC7010E941B0B8111C9CFCBCF1C
:1013800099A19F8F8F5F8D8FC6CF412F62E0CE01D5
:101390000E9439082FEF89EF90E021508040904063
:1013A000E1F700C0000042CFDF91CF911F91FF9085
:1013B000EF90DF90CF90BF90AF900895FC01848DA7
:1013C000823069F4278D93A1921748F481E0868FCB
:1013D000138E148E178E158E10A211A20895938D60
:1013E000913009F593A1278D291738F530A13917C8
:1013F00010F582E0ECCF833011F487E0E8CF923033
:1014000039F788E0E4CF8130B1F785E0E0CF813073
:10141000E1F3921728F420A1921710F486E0D7CFB9
:101420008330B1F6EACF823071F7278D83A1281778
:1014300030F783E0CCCF8230E1F3291740F730A1B9
:10144000931728F784E0C3CFCF93DF93EC01898112
:10145000882321F01982DF91CF9108954DE760E054
:10146000CE010E9439088FE39CE90197F1F700C093
:101470000000EDCFCF93DF93EC018881882321F02A
:101480001882DF91CF9108954DE761E0CE010E946F
:1014900039088FE39CE90197F1F700C00000EDCF18
:1014A000D82FC92F4DE762E08D2F9C2F0E9439085D
:1014B0008FE39CE90197F1F700C00000F3CFCF93D1
:1014C000DF93EC01AB0190E0FA01E90FF11D2081FF
:1014D000211103C0DF91CF9108958181821B2B815F
:1014E0003C812230310529F144F42115310569F0A0
:1014F00021303105A9F09F5FE7CF23303105D9F7BF
:10150000813051F08730B9F716C0813019F4CE011F
:101510000E94500A873079F7CE010E943A0AF7CF2D
:10152000813021F4CE010E94240AF1CF873019F7CF
:10153000EECF813029F46DE7CE010E940808E7CF95
:101540008730C9F6EFCF0895FC016083418381E0C5
:10155000828323830895FC0180810895FC018181A9
:101560000895FC0182810895FC0183810895FC01A6
:1015700062830895FC0161838EE1828382E083832C
:10158000CF0104960E94A20381B111B80895FC0115
:10159000618381B111B80895CF92DF92EF92FF92EB
:1015A0000F931F93CF93DF93EC01F12CE12C10E00C
:1015B00000E06C0184E0C80ED11C6A8170E0E61680
:1015C000F7066CF0C8010E94410F6883DF91CF914C
:1015D0001F910F91FF90EF90DF90CF900895698158
:1015E000C6010E94AB03969587959695879588834B
:1015F000080F111D8FEFE81AF80ADFCFCF93DF93A2
:10160000EC01698104960E94AB03969587959695A7
:1016100087958883DF91CF910895FC0181E09081C7
:10162000943B08F480E00895FC018081089581B125
:10163000877081B9089580B1807E803E19F480B1B1
:10164000887159F080B1807F803F49F480B183FB7D
:10165000882780F991E08927089581E0089580E046
:10166000089580B18873883319F480B1807C51F07B
:1016700080B18877883741F480B18095881F8827AA
:10168000881F089581E0089580E00895059B03C0B8
:1016900080B1887D51F080B18077803721F490B19E
:1016A000987881E009F080E0089581E0089580B1A4
:1016B0008076803619F480B1887941F0069B04C0A9
:1016C00090B1987B81E009F080E0089581E0089571
:1016D00080B18073803319F480B1887C41F0049B21
:1016E00004C090B1987E81E009F080E0089581E027
:1016F000089590B1987F81E0983F09F080E00895C7
:1017000090B1987F81E009F080E0089580B1807306
:10171000803319F480B1887C51F080B180768036B6
:1017200021F490B1987981E009F080E0089581E09A
:1017300008959C0190E080E00196F901E80FF91FFF
:1017400040814111F9CF0895EF92FF920F931F93BB
:10175000CF93FC019B011786672B49F40E9620E37B
:101760002687CF911F910F91FF90EF9008957C01F4
:101770008FE0E80EF11CCEE0042F10E0C901B801A3
:101780000E94410FDC01A158BD4F8C91D7018E936F
:101790007D01C150C9019B018017910710F0C11153
:1017A000EDCFCF5FCF018C0F911DDBCF9C0190E07F
:1017B00080E08217930709F40895EFECF7E0319782
:1017C000F1F700C000000196F4CFFC018081806237
:1017D000808384E08A95F1F780818F7D80830895EE
:1017E000EF92FF920F931F93CF93DF93162F042F47
:1017F000E90190E8899F70011124888181728883B2
:101800008881962F92959F70990F9E29982B988387
:10181000C9010E94E50B8881817288838881110F3C
:101820001E711E29182B1883CE010E94E50B80E043
:101830009AE19A95F1F700C08F5F8013F9CFDF919D
:10184000CF911F910F91FF90EF9008959C0144EA72
:1018500061E080E00C94F00B9C0144EA62E080E0DF
:101860000C94F00B9A01880F682B646044E080E0D0
:101870000C94F00B54E0859FC0011124660F682B77
:101880006860642B44E080E00C94F00B9A0148E01F
:10189000849FC001112444E0649FB0011124682B8F
:1018A000606144E080E00C94F00B9A0140E1849F79
:1018B000C001112448E0649FB0011124682B6062CC
:1018C00044E080E00C94F00B9B018F77682F6064FC
:1018D00044E080E00C94F00B9B01682F606844E0CA
:1018E00080E00C94F00B9B0144E0682F81E00C94A5
:1018F000F00BCF93DF93FC01EB018FE295E70197AB
:10190000F1F700C0000080818172808380818FEFB9
:1019100080838881817288838881866088838881BA
:101920008E7F8883CB010E94E50B87E090E20197D0
:10193000F1F700C00000CE010E94E50B87EC90E0BB
:101940000197F1F700C00000CE010E94E50B9AE676
:101950009A95F1F700C088818172888388818460BC
:101960008883CE010E94E50B8AE68A95F1F700C0D4
:101970009E0144E06CE280E00E94F00B9E0140E09A
:1019800060E080E00E943A0CCE010E94260CAE017D
:1019900060E081E00E94320C9E0140E060E081E066
:1019A000DF91CF910C943A0CFC01718360834283E8
:1019B00023830895FC01A081B1814C91228181E0B3
:1019C00090E0BC0102C0660F771F2A95E2F79B01E9
:1019D000209524232C93A081B1812C91338101C0C7
:1019E000880F3A95EAF7809582238C930895FC013D
:1019F00071836083428323830895FC01A081B181B8
:101A00002C91328181E090E0AC0101C0440F3A9505
:101A1000EAF7242B2C93A081B1812C91338101C052
:101A2000880F3A95EAF7809582238C930895FC01FC
:101A3000A081B1814C91828121E030E0B90102C0E6
:101A4000660F771F8A95E2F7CB01809584238C93EC
:101A5000A081B1818C91938101C0220F9A95EAF700
:101A6000822B8C930895EF92FF920F931F93CF9345
:101A7000DF93D82FC92FCB0168E270E00E94410F9D
:101A80007B0110E000E08D2F9C2F0E151F0541F407
:101A9000DF91CF911F910F91FF90EF900C94DA0C92
:101AA0000E94FD0C8FE39CE90197F1F700C0000054
:101AB0008D2F9C2F0E94170D8FE39CE90197F1F762
:101AC00000C000000F5F1F4FDECF0895E0E7F0E099
:101AD0008081826080830895E0E7F0E080818D7FDF
:101AE000808308951092B2006093B300E0EBF0E0C1
:101AF000808182608083E1EBF0E080818760808379
:101B00000895E0EBF0E080818D7F8083E1EBF0E0F1
:101B1000808180831092B3000895EEE6F0E080812A
:101B2000826080830895EEE6F0E080818D7F80837F
:101B3000089516BC67BD84B5826084BD85B5856097
:101B400085BD089584B58D7F84BD85B585BD17BCE1
:101B500008959C01CB012115310531F461307105E7
:101B600051F45E9A5F9808952130310521F4892B54
:101B700011F45F9A5E980895FC018FEF80831182C3
:101B8000128282E3838386E4848315821682089519
:101B9000CB01BA01009731F4452B69F48BB18F73F7
:101BA0008BB908958130910531F44130510519F414
:101BB0008BB1806CF5CF0C94A90D8AB1806F8AB976
:101BC000E0E8F0E08081816F8083E1E8F0E08081EF
:101BD00082608083109282008FEF90E09093890062
:101BE0008093880090938B0080938A00089570E022
:101BF000709389006093880050E050938B0040936D
:101C00008A0008958BB18F738BB908958BB1806C66
:101C10008BB90895A8E8B0E080E590E011969C9318
:101C20008E93EAE8F0E0918380832FEF80E792E0E3
:101C3000215080409040E1F700C0000087E0860F0F
:101C400090E011969C938E9370E071836083089569
:101C5000CF93DF93C62F61E070E090E080E00E94B8
:101C6000A90DA8E8B0E080E590E011969C938E93D2
:101C7000EAE8F0E0918380832FEF81EE94E0215039
:101C800080409040E1F700C000008BE18C0F90E0B5
:101C900011969C938E93CE5ED0E0D183C083DF916A
:101CA000CF910895CF93DF93C62F70E060E081E07D
:101CB00090E00E94A90DA8E8B0E080E590E01196C0
:101CC0009C938E93EAE8F0E0918380832FEF81EE7E
:101CD00094E0215080409040E1F700C000008BE18B
:101CE0008C0F90E011969C938E93C45FD0E0D183CB
:101CF000C083DF91CF910895CF93DF93C62F61E02A
:101D000070E090E080E00E94A90DA8E8B0E080E5D6
:101D100090E011969C938E93EAE8F0E091838083A3
:101D20002FEF81EE94E0215080409040E1F700C019
:101D300000008BE18C0F90E011969C938E93C65F10
:101D4000D0E0D183C083DF91CF910895FC018081E1
:101D500090E0909389008093880090938B0080930B
:101D60008A000895CDB7DEB7CC56D1400FB6F894AF
:101D7000DEBF0FBECDBFCE0101960E94CE038AE921
:101D800092E00E9484038AE992E00E948E038AE92D
:101D900092E00E94980310E000E001151105A9F1FE
:101DA00001301105D1F78BE992E00E945B072FEF1C
:101DB00083ED90E3215080409040E1F700C00000A7
:101DC0006DE78BE992E00E94CE088BE992E00E94D9
:101DD000DE092FEF83ED90E3215080409040E1F742
:101DE00000C000008BE992E00E94C6080E944E01EC
:101DF0002FEF83E294EF215080409040E1F700C044
:101E0000000080E992E00E9443058BE992E00E9485
:101E100054078091C60200E0813019F41092C60286
:101E200001E010E08091C502813009F0B6CF109238
:101E3000C5028AE992E00E946703882309F4ADCFC6
:101E40001092C502109202010E94A30102E010E06C
:101E5000A4CF8BE992E00E94E3068AE992E00E9417
:101E6000580348E250E067E270E080E992E00C94A9
:101E7000F10480E992E00E940F0580EB92E00C945F
:101E8000A803AA1BBB1B51E107C0AA1FBB1FA617B3
:101E9000B70710F0A61BB70B881F991F5A95A9F713
:101EA00080959095BC01CD010895EE0FFF1F059020
:101EB000F491E02D09940F931F93CF93DF939C012E
:101EC000029710F422E030E0E091C902F091CA02DA
:101ED00090E080E0B0E0A0E0309791F4009709F442
:101EE00045C0821B930B84309105B8F58A819B8194
:101EF0006115710569F1FB0193838283FE0111C0B5
:101F0000408151810281138142175307F0F042173B
:101F1000530799F4109761F012960C931297139649
:101F20001C933296CF01DF91CF911F910F910895AD
:101F30000093C9021093CA02F4CF009719F0481712
:101F4000590718F4CA01BD01EF01DF01F801C4CF40
:101F50009093CA028093C902D1CFFE01E80FF91F06
:101F600021933193029799838883DCCF8091CB02B0
:101F70009091CC02892B41F480910501909106014A
:101F80009093CC028093CB02809103019091040145
:101F9000009741F48DB79EB7409107015091080119
:101FA000841B950B4091CB025091CC0248175907E6
:101FB00008F0B8CF841B950B8217930708F4B2CFB3
:101FC000B9016E5F7F4F8617970708F4ABCF640F98
:101FD000751F7093CC026093CB02FA012193319369
:101FE000A1CFCF93DF939C010097E9F0FC013297DA
:101FF00013821282C091C902D091CA02DE0190E020
:1020000080E02097A1F480819181280F391F809171
:10201000CB029091CC028217930709F067C0F0932E
:10202000CC02E093CB02DF91CF910895DA01AE1795
:10203000BF0708F041C012964D915C911397CD01F6
:102040004115510599F7DC011396FC93EE93129715
:102050004D915D91A40FB51FEA17FB0781F4208114
:1020600031812E5F3F4F240F351FDC0111963C93C9
:102070002E932281338113963C932E931297B0E0D6
:10208000A0E08A819B810097B1F5FE018191919139
:10209000E80FF91F8091CB029091CC028E179F0719
:1020A00011F6109759F51092CA021092C902D093F6
:1020B000CC02C093CB02B7CFB383A28340815181BE
:1020C000240F351FA217B30771F44E5F5F4F2D9198
:1020D0003C911197240F351F3183208312962D9147
:1020E0003C9133832283009709F0ADCFF093CA026D
:1020F000E093C90298CFDE01EC01C3CF13961C9286
:102100001E921297D4CFAEE0B0E0E9E8F0E10C9473
:102110002B130D891E8986E08C831A8309838FEF28
:102120009FE79E838D83AE01475E5F4F6F89788DF9
:10213000CE0101960E94A6102F813885020F131F31
:10214000F80110822E96E4E00C944713AFE0B0E063
:10215000ECEAF0E10C941D137C013B018A01DC01E7
:1021600017961C921E92169713968C9181FFBEC1F2
:102170009AE0292EFE0131964F01D70113969C91CA
:10218000F30193FD859193FF81913F01882309F429
:1021900044C1853239F493FD859193FF81913F01CC
:1021A000853229F4B70190E00E948F12E6CFB12C5E
:1021B000412C512CBFE1B51538F08B3209F188F470
:1021C000803201F1833221F157FC3AC020ED280F13
:1021D0002A3040F556FE1FC0B29C200D1124B22EAD
:1021E00006C08D3291F0803379F7689450F8F3018E
:1021F00093FD859193FF81913F018111DBCF20C039
:10220000689451F8689452F8F2CF689453F8EFCF7D
:10221000689454F8ECCF429C200D1124422E68940F
:1022200055F8E5CF8E3229F456FCF7C0689456F87D
:10223000DECF8C3619F4689457F8D9CF8836B9F2C6
:10224000982F9F7D95549330C0F0833681F183376A
:10225000A1F1833509F05BC0D801CD90DD908D01EF
:102260006B2D70E056FC02C06FEF7FEFC6010E943D
:1022700079125C01689457F80AC00C5F1F4FEFE3B6
:10228000E983AA24A394B12C6401E89457F853FE7F
:1022900029C0342CA114B10451F5332009F46DCFB9
:1022A000B70180E290E00E948F123A94F6CFD801F5
:1022B0008C9189830E5F1F4FE4CFF801C190D190BC
:1022C0008F016B2D70E056FC02C06FEF7FEFC601EF
:1022D0000E9484125C01D9CFB70180E290E00E9495
:1022E0008F124A944A141B0409F0B0F7D2CFF601BA
:1022F00057FC859157FE81916F01B70190E00E94D4
:102300008F1231103A94B1E0AB1AB108C3CF8436C2
:1023100019F0893609F071C0F80157FE67C0619164
:102320007191819191918F01E52DEF76DE2E97FFCE
:1023300009C090958095709561957F4F8F4F9F4F05
:102340006894D7F82AE030E0A4010E94BF12C82E9A
:10235000C818AC2C5D2CD6FE0CC0E89450F8CB14F9
:1023600040F4D4FE05C0D2FC03C05D2D5E7E552E28
:10237000AB2C54FE93C0FE01EC0DF11D8081803327
:1023800009F085C0652D697E562E752D7870372E23
:1023900053FC93C050FE8DC0BC2CA41410F4B40C9C
:1023A000BA1854FE90C0B70180E390E00E948F12EB
:1023B00052FE07C088E751FC88E590E0B7010E9413
:1023C0008F12CB1408F48BC0CA94D12C8FEFC81A8B
:1023D000D80AC80CD91CD6018E916D01B70190E0C6
:1023E0000E948F128C149D04B1F757CF61917191A7
:1023F000072E000C880B990B96CFD52CE894D4F8B7
:102400002AE0853729F1F52DF97FDF2E8037A1F0FD
:1024100058F48835A1F08F36D1F0F7018681978185
:102420002F96E2E10C9439138837B9F7D4FE02C035
:102430006894D2F820E10CC06894D4F8F7CF54FE29
:1024400003C02F2F2660D22E20E132E002C028E008
:1024500030E0F801D7FE15C0419151916191719121
:102460004C875D876E877F878F01A4016C857D8592
:102470008E859F850E94BF12C82EC818E894D7F891
:1024800068CF81919191AC0170E060E0E9CF52FC9E
:1024900002C0A3947ACFA394A39477CF852D867896
:1024A00009F473CFF6CFB70180E290E00E948F125B
:1024B000A394A414C0F3312C74CF342C3A18A41470
:1024C00008F46FCFF8CF852D867809F47ACF8BE2A8
:1024D00051FE80E257FC8DE2B70190E070CFB7016A
:1024E00080E390E00E948F12BA946BCF8FEF9FEF42
:1024F00097CFFC010590615070400110D8F780958E
:1025000090958E0F9F1F0895FC01615070400190BF
:102510000110D8F7809590958E0F9F1F08950F9307
:102520001F93CF93DF93182F092FEB018B8181FD30
:1025300009C01FEF0FEF812F902FDF91CF911F91D7
:102540000F91089582FF14C02E813F818C819D815F
:10255000281739073CF4E881F981CF010196998366
:10256000888310838E819F8101969F838E83E3CF22
:10257000E885F985812F0995892BA1F3DACFFA0136
:10258000AA27283051F1203181F1E8946F936E7FB2
:102590006E5F7F4F8F4F9F4FAF4FB1E03ED0B4E0A3
:1025A0003CD0670F781F891F9A1FA11D680F791FE4
:1025B0008A1F911DA11D6A0F711D811D911DA11DF5
:1025C00020D009F468943F912AE0269F1124301905
:1025D000305D3193DEF6CF010895462F4770405DA0
:1025E0004193B3E00FD0C9F7F6CF462F4F70405D4F
:1025F0004A3318F0495D31FD4052419302D0A9F7AA
:10260000EACFB4E0A6959795879577956795BA95A3
:10261000C9F700976105710508959B01AC010A2E69
:1026200006945795479537952795BA95C9F7620F40
:10263000731F841F951FA01D08952F923F924F92E4
:102640005F926F927F928F929F92AF92BF92CF9242
:10265000DF92EF92FF920F931F93CF93DF93CDB74B
:10266000DEB7CA1BDB0B0FB6F894DEBF0FBECDBFC3
:1026700009942A88398848885F846E847D848C8494
:102680009B84AA84B984C884DF80EE80FD800C819D
:102690001B81AA81B981CE0FD11D0FB6F894DEBF80
:1026A0000FBECDBFED01089510E0CFE3D0E004C030
:1026B000FE010E94550F2196C034D107C9F7F89446
:1026C000FFCF650170017F0182018D0198019B019F
:0226D0009E0169
:1026D2000101050000CD02200001020101010801F3
:1026E20001020101010203010103020101030401CC
:1026F20001030A010104030101040B0101050601A2
:10270200010605010106070102060D010207060185
:1027120002070E010108090105080101010908016A
:1027220005090A0101091001010A0901010A03014F
:10273200010A1101050B0401010B0C01020C01013C
:10274200020C0D01010C1301050D0C01010D060116
:10275200020D0E01010D1401010E0D01010E070102
:10276200010E1501010F1001020F160105100F01D4
:1027720002100901011011010111100101110A01D8
:1027820005111201011118010112110101121301A7
:10279200051219010113120105130C0105131A0187
:1027A20005140D0101141B0101150E0101151C0177
:1027B20001160F010516170101171601011718015D
:1027C200011817010118110101191A010219120148
:1027D200011A1901021A1301051A1B01051B1A011C
:1027E200051B1401011B1C01011C1B01011C15010D
:1027F2000128312C3129005355440028312C372926
:10280200004F554553540028342C3129004E4F5265
:10281200440028342C3729004C49474E45003100EA
:1028220032003300340028002C0029204F4B3F0097
:102832004F5549004E4F4E00434F4C4F4E4E4500B0
:102842003500360037002575002569002563003004
:102852003132333435363738396162636465660044
:00000001FF
